{
  "abi": [
    {
      "inputs": [],
      "stateMutability": "nonpayable",
      "type": "constructor"
    },
    {
      "anonymous": false,
      "inputs": [
        {
          "indexed": false,
          "internalType": "string",
          "name": "survey_key",
          "type": "string"
        },
        {
          "indexed": false,
          "internalType": "string",
          "name": "checksum",
          "type": "string"
        }
      ],
      "name": "Log_checksum",
      "type": "event"
    },
    {
      "anonymous": false,
      "inputs": [
        {
          "indexed": true,
          "internalType": "address",
          "name": "previousOwner",
          "type": "address"
        },
        {
          "indexed": true,
          "internalType": "address",
          "name": "newOwner",
          "type": "address"
        }
      ],
      "name": "OwnershipTransferred",
      "type": "event"
    },
    {
      "inputs": [
        {
          "internalType": "address",
          "name": "dp_address",
          "type": "address"
        },
        {
          "internalType": "uint256",
          "name": "reward",
          "type": "uint256"
        }
      ],
      "name": "add_reward",
      "outputs": [],
      "stateMutability": "nonpayable",
      "type": "function"
    },
    {
      "inputs": [
        {
          "internalType": "address",
          "name": "_survey_owner",
          "type": "address"
        },
        {
          "internalType": "string",
          "name": "survey_public_key",
          "type": "string"
        },
        {
          "internalType": "uint256",
          "name": "_budget",
          "type": "uint256"
        },
        {
          "internalType": "uint256",
          "name": "_target_number",
          "type": "uint256"
        },
        {
          "internalType": "uint256",
          "name": "_top_perform_threshold",
          "type": "uint256"
        },
        {
          "internalType": "uint256",
          "name": "_low_perform_threshold",
          "type": "uint256"
        }
      ],
      "name": "add_survey_reward",
      "outputs": [],
      "stateMutability": "nonpayable",
      "type": "function"
    },
    {
      "inputs": [
        {
          "internalType": "address",
          "name": "dp_address",
          "type": "address"
        },
        {
          "internalType": "string",
          "name": "survey_key",
          "type": "string"
        },
        {
          "internalType": "uint256",
          "name": "performance",
          "type": "uint256"
        }
      ],
      "name": "calculate_reward",
      "outputs": [],
      "stateMutability": "nonpayable",
      "type": "function"
    },
    {
      "inputs": [],
      "name": "contract_address",
      "outputs": [
        {
          "internalType": "address",
          "name": "",
          "type": "address"
        }
      ],
      "stateMutability": "view",
      "type": "function"
    },
    {
      "inputs": [
        {
          "internalType": "address",
          "name": "survey_owner_address",
          "type": "address"
        },
        {
          "internalType": "string",
          "name": "survey_public_key",
          "type": "string"
        },
        {
          "internalType": "uint256",
          "name": "_budget",
          "type": "uint256"
        },
        {
          "internalType": "uint256",
          "name": "_target_number",
          "type": "uint256"
        },
        {
          "internalType": "uint256",
          "name": "_top_perform_threshold",
          "type": "uint256"
        },
        {
          "internalType": "uint256",
          "name": "_low_perform_threshold",
          "type": "uint256"
        }
      ],
      "name": "create_survey",
      "outputs": [],
      "stateMutability": "nonpayable",
      "type": "function"
    },
    {
      "inputs": [],
      "name": "create_survey_cost",
      "outputs": [
        {
          "internalType": "uint256",
          "name": "",
          "type": "uint256"
        }
      ],
      "stateMutability": "view",
      "type": "function"
    },
    {
      "inputs": [],
      "name": "crowdcoin_address",
      "outputs": [
        {
          "internalType": "address",
          "name": "",
          "type": "address"
        }
      ],
      "stateMutability": "view",
      "type": "function"
    },
    {
      "inputs": [],
      "name": "distribute_all_rewards",
      "outputs": [],
      "stateMutability": "nonpayable",
      "type": "function"
    },
    {
      "inputs": [
        {
          "internalType": "address",
          "name": "",
          "type": "address"
        }
      ],
      "name": "dp_staking_rewards",
      "outputs": [
        {
          "internalType": "uint256",
          "name": "",
          "type": "uint256"
        }
      ],
      "stateMutability": "view",
      "type": "function"
    },
    {
      "inputs": [
        {
          "internalType": "uint256",
          "name": "budget",
          "type": "uint256"
        },
        {
          "internalType": "uint256",
          "name": "target_number",
          "type": "uint256"
        }
      ],
      "name": "get_max_reward",
      "outputs": [
        {
          "internalType": "uint256",
          "name": "",
          "type": "uint256"
        }
      ],
      "stateMutability": "pure",
      "type": "function"
    },
    {
      "inputs": [
        {
          "internalType": "uint256",
          "name": "top_perform",
          "type": "uint256"
        },
        {
          "internalType": "uint256",
          "name": "max",
          "type": "uint256"
        }
      ],
      "name": "get_med_reward",
      "outputs": [
        {
          "internalType": "uint256",
          "name": "",
          "type": "uint256"
        }
      ],
      "stateMutability": "pure",
      "type": "function"
    },
    {
      "inputs": [
        {
          "internalType": "uint256",
          "name": "top_perform",
          "type": "uint256"
        },
        {
          "internalType": "uint256",
          "name": "budget",
          "type": "uint256"
        },
        {
          "internalType": "uint256",
          "name": "target_number",
          "type": "uint256"
        }
      ],
      "name": "get_min_reward",
      "outputs": [
        {
          "internalType": "uint256",
          "name": "",
          "type": "uint256"
        }
      ],
      "stateMutability": "pure",
      "type": "function"
    },
    {
      "inputs": [
        {
          "internalType": "string",
          "name": "survey_public_key",
          "type": "string"
        }
      ],
      "name": "get_survey_reward_by_key",
      "outputs": [
        {
          "internalType": "address",
          "name": "",
          "type": "address"
        },
        {
          "internalType": "uint256",
          "name": "",
          "type": "uint256"
        },
        {
          "internalType": "uint256",
          "name": "",
          "type": "uint256"
        },
        {
          "internalType": "uint256",
          "name": "",
          "type": "uint256"
        },
        {
          "internalType": "uint256",
          "name": "",
          "type": "uint256"
        },
        {
          "internalType": "uint256",
          "name": "",
          "type": "uint256"
        },
        {
          "internalType": "uint256",
          "name": "",
          "type": "uint256"
        },
        {
          "internalType": "uint256",
          "name": "",
          "type": "uint256"
        }
      ],
      "stateMutability": "view",
      "type": "function"
    },
    {
      "inputs": [
        {
          "internalType": "string",
          "name": "survey_key",
          "type": "string"
        },
        {
          "internalType": "string",
          "name": "checksum",
          "type": "string"
        }
      ],
      "name": "log_checksum",
      "outputs": [],
      "stateMutability": "nonpayable",
      "type": "function"
    },
    {
      "inputs": [],
      "name": "owner",
      "outputs": [
        {
          "internalType": "address",
          "name": "",
          "type": "address"
        }
      ],
      "stateMutability": "view",
      "type": "function"
    },
    {
      "inputs": [
        {
          "internalType": "address",
          "name": "purchase",
          "type": "address"
        },
        {
          "internalType": "uint256",
          "name": "amount",
          "type": "uint256"
        }
      ],
      "name": "purchase_coin",
      "outputs": [],
      "stateMutability": "nonpayable",
      "type": "function"
    },
    {
      "inputs": [],
      "name": "renounceOwnership",
      "outputs": [],
      "stateMutability": "nonpayable",
      "type": "function"
    },
    {
      "inputs": [
        {
          "internalType": "address",
          "name": "_address",
          "type": "address"
        }
      ],
      "name": "set_coin",
      "outputs": [],
      "stateMutability": "nonpayable",
      "type": "function"
    },
    {
      "inputs": [
        {
          "internalType": "uint256",
          "name": "cost",
          "type": "uint256"
        }
      ],
      "name": "set_create_survey_cost",
      "outputs": [],
      "stateMutability": "nonpayable",
      "type": "function"
    },
    {
      "inputs": [
        {
          "internalType": "string",
          "name": "",
          "type": "string"
        }
      ],
      "name": "survey_rewards",
      "outputs": [
        {
          "internalType": "address",
          "name": "survey_owner",
          "type": "address"
        },
        {
          "internalType": "uint256",
          "name": "budget",
          "type": "uint256"
        },
        {
          "internalType": "uint256",
          "name": "target_number",
          "type": "uint256"
        },
        {
          "internalType": "uint256",
          "name": "top_perform_threshold",
          "type": "uint256"
        },
        {
          "internalType": "uint256",
          "name": "low_perform_threshold",
          "type": "uint256"
        },
        {
          "internalType": "uint256",
          "name": "max_reward",
          "type": "uint256"
        },
        {
          "internalType": "uint256",
          "name": "min_reward_multiplier",
          "type": "uint256"
        },
        {
          "internalType": "uint256",
          "name": "med_reward_multiplier",
          "type": "uint256"
        }
      ],
      "stateMutability": "view",
      "type": "function"
    },
    {
      "inputs": [
        {
          "internalType": "address",
          "name": "newOwner",
          "type": "address"
        }
      ],
      "name": "transferOwnership",
      "outputs": [],
      "stateMutability": "nonpayable",
      "type": "function"
    }
  ],
  "bytecode": "60806040523480156200001157600080fd5b506000620000276001600160e01b03620000da16565b600080546001600160a01b0319166001600160a01b0383169081178255604051929350917f8be0079c531659141344cd1fd0a4f28419497f9722a3daafe3b4186f6b6457e0908290a350620000c2306040518060400160405280601981526020017f544849535f49535f5355525645595f5055424c49435f4b4559000000000000008152506127106103e8604b6019620000de60201b60201c565b600280546001600160a01b0319163017905562000277565b3390565b6000620000f585856001600160e01b036200023d16565b905060006200010f8487876001600160e01b036200025116565b905060006200012885846001600160e01b036200026b16565b90506040518061010001604052808a6001600160a01b03168152602001888152602001878152602001868152602001858152602001848152602001838152602001828152506005896040518082805190602001908083835b60208310620001a15780518252601f19909201916020918201910162000180565b51815160209384036101000a600019018019909216911617905292019485525060408051948590038201909420855181546001600160a01b0319166001600160a01b039091161781559085015160018201559284015160028401555050606082015160038201556080820151600482015560a0820151600582015560c0820151600682015560e090910151600790910155505050505050505050565b60008183816200024957fe5b049392505050565b600083826004020283816200026257fe5b04949350505050565b60008282816200024957fe5b61159180620002876000396000f3fe608060405234801561001057600080fd5b50600436106101375760003560e01c80638da5cb5b116100b8578063c53621271161007c578063c53621271461058c578063d9b3831b146105af578063dafce98e146105d2578063dbf3de64146106fb578063e4e9c302146107c0578063f2fde38b146107c857610137565b80638da5cb5b14610486578063966b35141461048e578063a136fcbb14610496578063b7936ff41461053a578063c0eee0911461056657610137565b80634b01e961116100ff5780634b01e9611461028957806357eed2371461033f57806359077ad3146103635780636faf0f7d14610452578063715018a61461047e57610137565b80630fa549d51461013c578063281e38771461016457806329262e211461017e57806334723a85146101a7578063388ab846146101c4575b600080fd5b6101626004803603602081101561015257600080fd5b50356001600160a01b03166107ee565b005b61016c610940565b60408051918252519081900360200190f35b61016c6004803603606081101561019457600080fd5b5080359060208101359060400135610946565b610162600480360360208110156101bd57600080fd5b503561095f565b610162600480360360c08110156101da57600080fd5b6001600160a01b038235169190810190604081016020820135600160201b81111561020457600080fd5b82018360208201111561021657600080fd5b803590602001918460018302840111600160201b8311171561023757600080fd5b91908080601f0160208091040260200160405190810160405280939291908181526020018383808284376000920191909152509295505082359350505060208101359060408101359060600135610964565b6101626004803603606081101561029f57600080fd5b6001600160a01b038235169190810190604081016020820135600160201b8111156102c957600080fd5b8201836020820111156102db57600080fd5b803590602001918460018302840111600160201b831117156102fc57600080fd5b91908080601f016020809104026020016040519081016040528093929190818152602001838380828437600092019190915250929550509135925061097a915050565b610347610b42565b604080516001600160a01b039092168252519081900360200190f35b6104076004803603602081101561037957600080fd5b810190602081018135600160201b81111561039357600080fd5b8201836020820111156103a557600080fd5b803590602001918460018302840111600160201b831117156103c657600080fd5b91908080601f016020809104026020016040519081016040528093929190818152602001838380828437600092019190915250929550610b51945050505050565b604080516001600160a01b0390991689526020890197909752878701959095526060870193909352608086019190915260a085015260c084015260e083015251908190036101000190f35b6101626004803603604081101561046857600080fd5b506001600160a01b038135169060200135610c91565b610162610d7a565b610347610e1c565b610347610e2c565b610407600480360360208110156104ac57600080fd5b810190602081018135600160201b8111156104c657600080fd5b8201836020820111156104d857600080fd5b803590602001918460018302840111600160201b831117156104f957600080fd5b91908080601f016020809104026020016040519081016040528093929190818152602001838380828437600092019190915250929550610e3b945050505050565b6101626004803603604081101561055057600080fd5b506001600160a01b038135169060200135610e95565b61016c6004803603602081101561057c57600080fd5b50356001600160a01b0316610f51565b61016c600480360360408110156105a257600080fd5b5080359060200135610f63565b61016c600480360360408110156105c557600080fd5b5080359060200135610f76565b610162600480360360408110156105e857600080fd5b810190602081018135600160201b81111561060257600080fd5b82018360208201111561061457600080fd5b803590602001918460018302840111600160201b8311171561063557600080fd5b91908080601f0160208091040260200160405190810160405280939291908181526020018383808284376000920191909152509295949360208101935035915050600160201b81111561068757600080fd5b82018360208201111561069957600080fd5b803590602001918460018302840111600160201b831117156106ba57600080fd5b91908080601f016020809104026020016040519081016040528093929190818152602001838380828437600092019190915250929550610f81945050505050565b610162600480360360c081101561071157600080fd5b6001600160a01b038235169190810190604081016020820135600160201b81111561073b57600080fd5b82018360208201111561074d57600080fd5b803590602001918460018302840111600160201b8311171561076e57600080fd5b91908080601f01602080910402602001604051908101604052809392919081815260200183838082843760009201919091525092955050823593505050602081013590604081013590606001356110f0565b61016261122c565b610162600480360360208110156107de57600080fd5b50356001600160a01b031661138c565b6107f6611484565b6000546001600160a01b03908116911614610846576040805162461bcd60e51b8152602060048201819052602482015260008051602061153c833981519152604482015290519081900360640190fd5b600380546001600160a01b038084166001600160a01b03199283161792839055600180549092169281169290921790819055600254604080516351f462f560e01b815291841660048301525191909216916351f462f591602480830192600092919082900301818387803b1580156108bd57600080fd5b505af11580156108d1573d6000803e3d6000fd5b50505050600160009054906101000a90046001600160a01b03166001600160a01b0316637c9d53216040518163ffffffff1660e01b8152600401600060405180830381600087803b15801561092557600080fd5b505af1158015610939573d6000803e3d6000fd5b5050505050565b60045481565b6000838260040202838161095657fe5b04949350505050565b600455565b6109728686868686866110f0565b505050505050565b610982611484565b6000546001600160a01b039081169116146109d2576040805162461bcd60e51b8152602060048201819052602482015260008051602061153c833981519152604482015290519081900360640190fd5b60006109dc611488565b6005846040518082805190602001908083835b60208310610a0e5780518252601f1990920191602091820191016109ef565b518151600019602094850361010090810a919091019182169119929092161790915293909101958652604080519687900382018720938701815283546001600160a01b031687526001840154918701919091526002830154908601525060038101546060850181905260048201546080860152600582015460a0860152600682015460c086015260079091015460e085015292935050508310610ab7578060a001519150610ada565b80608001518311610ad057828160c00151029150610ada565b828160e001510291505b506001600160a01b03909316600081815260066020526040812080549095019094556007805460018101825594527fa66cc928b5edb82af9bd49922954155ab7b0942694bea4ce44661d9a8736c68890930180546001600160a01b0319169093179092555050565b6003546001600160a01b031681565b600080600080600080600080610b65611488565b60058a6040518082805190602001908083835b60208310610b975780518252601f199092019160209182019101610b78565b6001836020036101000a0380198251168184511680821785525050505050509050019150509081526020016040518091039020604051806101000160405290816000820160009054906101000a90046001600160a01b03166001600160a01b03166001600160a01b031681526020016001820154815260200160028201548152602001600382015481526020016004820154815260200160058201548152602001600682015481526020016007820154815250509050806000015181602001518260400151836060015184608001518560a001518660c001518760e001519850985098509850985098509850985050919395975091939597565b610c99611484565b6000546001600160a01b03908116911614610ce9576040805162461bcd60e51b8152602060048201819052602482015260008051602061153c833981519152604482015290519081900360640190fd5b600154600254604080516323b872dd60e01b81526001600160a01b039283166004820152858316602482015260448101859052905191909216916323b872dd9160648083019260209291908290030181600087803b158015610d4a57600080fd5b505af1158015610d5e573d6000803e3d6000fd5b505050506040513d6020811015610d7457600080fd5b50505050565b610d82611484565b6000546001600160a01b03908116911614610dd2576040805162461bcd60e51b8152602060048201819052602482015260008051602061153c833981519152604482015290519081900360640190fd5b600080546040516001600160a01b03909116907f8be0079c531659141344cd1fd0a4f28419497f9722a3daafe3b4186f6b6457e0908390a3600080546001600160a01b0319169055565b6000546001600160a01b03165b90565b6002546001600160a01b031681565b805160208183018101805160058083529383019290940191909120929052815460018301546002840154600385015460048601549486015460068701546007909701546001600160a01b0390951696939592949193909188565b610e9d611484565b6000546001600160a01b03908116911614610eed576040805162461bcd60e51b8152602060048201819052602482015260008051602061153c833981519152604482015290519081900360640190fd5b6001600160a01b03909116600081815260066020526040812080549093019092556007805460018101825592527fa66cc928b5edb82af9bd49922954155ab7b0942694bea4ce44661d9a8736c68890910180546001600160a01b0319169091179055565b60066020526000908152604090205481565b6000818381610f6e57fe5b049392505050565b6000828281610f6e57fe5b6005826040518082805190602001908083835b60208310610fb35780518252601f199092019160209182019101610f94565b51815160209384036101000a60001901801990921691161790529201948552506040519384900301909220600101541591506110ec9050577fb46ee3acdfab018c5750cf60e5b6d00fa6e2b7b70598811347108c6bd135fa5b8282604051808060200180602001838103835285818151815260200191508051906020019080838360005b8381101561104f578181015183820152602001611037565b50505050905090810190601f16801561107c5780820380516001836020036101000a031916815260200191505b50838103825284518152845160209182019186019080838360005b838110156110af578181015183820152602001611097565b50505050905090810190601f1680156110dc5780820380516001836020036101000a031916815260200191505b5094505050505060405180910390a15b5050565b60006110fc8585610f63565b9050600061110b848787610946565b905060006111198584610f76565b90506040518061010001604052808a6001600160a01b03168152602001888152602001878152602001868152602001858152602001848152602001838152602001828152506005896040518082805190602001908083835b602083106111905780518252601f199092019160209182019101611171565b51815160209384036101000a600019018019909216911617905292019485525060408051948590038201909420855181546001600160a01b0319166001600160a01b039091161781559085015160018201559284015160028401555050606082015160038201556080820151600482015560a0820151600582015560c0820151600682015560e090910151600790910155505050505050505050565b611234611484565b6000546001600160a01b03908116911614611284576040805162461bcd60e51b8152602060048201819052602482015260008051602061153c833981519152604482015290519081900360640190fd5b60005b60075481101561137d576000600782815481106112a057fe5b60009182526020808320909101546001600160a01b03168083526006909152604090912054909150801561135c57600154600254604080516323b872dd60e01b81526001600160a01b039283166004820152858316602482015260448101859052905191909216916323b872dd9160648083019260209291908290030181600087803b15801561132f57600080fd5b505af1158015611343573d6000803e3d6000fd5b505050506040513d602081101561135957600080fd5b50505b506001600160a01b0316600090815260066020526040812055600101611287565b5061138a600760006114d6565b565b611394611484565b6000546001600160a01b039081169116146113e4576040805162461bcd60e51b8152602060048201819052602482015260008051602061153c833981519152604482015290519081900360640190fd5b6001600160a01b0381166114295760405162461bcd60e51b81526004018080602001828103825260268152602001806115166026913960400191505060405180910390fd5b600080546040516001600160a01b03808516939216917f8be0079c531659141344cd1fd0a4f28419497f9722a3daafe3b4186f6b6457e091a3600080546001600160a01b0319166001600160a01b0392909216919091179055565b3390565b60405180610100016040528060006001600160a01b03168152602001600081526020016000815260200160008152602001600081526020016000815260200160008152602001600081525090565b50805460008255906000526020600020908101906114f491906114f7565b50565b610e2991905b8082111561151157600081556001016114fd565b509056fe4f776e61626c653a206e6577206f776e657220697320746865207a65726f20616464726573734f776e61626c653a2063616c6c6572206973206e6f7420746865206f776e6572a26469706673582212202903f6f4174831391f76ceb73db7b19f473862e3bc48604df753fcd4757890b764736f6c63430006060033",
  "bytecodeSha1": "303a43f019f6d2fb7f5b9b16bce6b8f7ebaed197",
  "compiler": {
    "evm_version": "istanbul",
    "optimizer": {
      "enabled": true,
      "runs": 200
    },
    "version": "0.6.6+commit.6c089d02"
  },
  "contractName": "Reward",
  "language": "Solidity",
  "natspec": {
    "methods": {
      "owner()": {
        "details": "Returns the address of the current owner."
      },
      "renounceOwnership()": {
        "details": "Leaves the contract without owner. It will not be possible to call `onlyOwner` functions anymore. Can only be called by the current owner.     * NOTE: Renouncing ownership will leave the contract without an owner, thereby removing any functionality that is only available to the owner."
      },
      "transferOwnership(address)": {
        "details": "Transfers ownership of the contract to a new account (`newOwner`). Can only be called by the current owner."
      }
    }
  },
  "opcodes": "PUSH1 0x80 PUSH1 0x40 MSTORE CALLVALUE DUP1 ISZERO PUSH2 0x10 JUMPI PUSH1 0x0 DUP1 REVERT JUMPDEST POP PUSH1 0x4 CALLDATASIZE LT PUSH2 0x137 JUMPI PUSH1 0x0 CALLDATALOAD PUSH1 0xE0 SHR DUP1 PUSH4 0x8DA5CB5B GT PUSH2 0xB8 JUMPI DUP1 PUSH4 0xC5362127 GT PUSH2 0x7C JUMPI DUP1 PUSH4 0xC5362127 EQ PUSH2 0x58C JUMPI DUP1 PUSH4 0xD9B3831B EQ PUSH2 0x5AF JUMPI DUP1 PUSH4 0xDAFCE98E EQ PUSH2 0x5D2 JUMPI DUP1 PUSH4 0xDBF3DE64 EQ PUSH2 0x6FB JUMPI DUP1 PUSH4 0xE4E9C302 EQ PUSH2 0x7C0 JUMPI DUP1 PUSH4 0xF2FDE38B EQ PUSH2 0x7C8 JUMPI PUSH2 0x137 JUMP JUMPDEST DUP1 PUSH4 0x8DA5CB5B EQ PUSH2 0x486 JUMPI DUP1 PUSH4 0x966B3514 EQ PUSH2 0x48E JUMPI DUP1 PUSH4 0xA136FCBB EQ PUSH2 0x496 JUMPI DUP1 PUSH4 0xB7936FF4 EQ PUSH2 0x53A JUMPI DUP1 PUSH4 0xC0EEE091 EQ PUSH2 0x566 JUMPI PUSH2 0x137 JUMP JUMPDEST DUP1 PUSH4 0x4B01E961 GT PUSH2 0xFF JUMPI DUP1 PUSH4 0x4B01E961 EQ PUSH2 0x289 JUMPI DUP1 PUSH4 0x57EED237 EQ PUSH2 0x33F JUMPI DUP1 PUSH4 0x59077AD3 EQ PUSH2 0x363 JUMPI DUP1 PUSH4 0x6FAF0F7D EQ PUSH2 0x452 JUMPI DUP1 PUSH4 0x715018A6 EQ PUSH2 0x47E JUMPI PUSH2 0x137 JUMP JUMPDEST DUP1 PUSH4 0xFA549D5 EQ PUSH2 0x13C JUMPI DUP1 PUSH4 0x281E3877 EQ PUSH2 0x164 JUMPI DUP1 PUSH4 0x29262E21 EQ PUSH2 0x17E JUMPI DUP1 PUSH4 0x34723A85 EQ PUSH2 0x1A7 JUMPI DUP1 PUSH4 0x388AB846 EQ PUSH2 0x1C4 JUMPI JUMPDEST PUSH1 0x0 DUP1 REVERT JUMPDEST PUSH2 0x162 PUSH1 0x4 DUP1 CALLDATASIZE SUB PUSH1 0x20 DUP2 LT ISZERO PUSH2 0x152 JUMPI PUSH1 0x0 DUP1 REVERT JUMPDEST POP CALLDATALOAD PUSH1 0x1 PUSH1 0x1 PUSH1 0xA0 SHL SUB AND PUSH2 0x7EE JUMP JUMPDEST STOP JUMPDEST PUSH2 0x16C PUSH2 0x940 JUMP JUMPDEST PUSH1 0x40 DUP1 MLOAD SWAP2 DUP3 MSTORE MLOAD SWAP1 DUP2 SWAP1 SUB PUSH1 0x20 ADD SWAP1 RETURN JUMPDEST PUSH2 0x16C PUSH1 0x4 DUP1 CALLDATASIZE SUB PUSH1 0x60 DUP2 LT ISZERO PUSH2 0x194 JUMPI PUSH1 0x0 DUP1 REVERT JUMPDEST POP DUP1 CALLDATALOAD SWAP1 PUSH1 0x20 DUP2 ADD CALLDATALOAD SWAP1 PUSH1 0x40 ADD CALLDATALOAD PUSH2 0x946 JUMP JUMPDEST PUSH2 0x162 PUSH1 0x4 DUP1 CALLDATASIZE SUB PUSH1 0x20 DUP2 LT ISZERO PUSH2 0x1BD JUMPI PUSH1 0x0 DUP1 REVERT JUMPDEST POP CALLDATALOAD PUSH2 0x95F JUMP JUMPDEST PUSH2 0x162 PUSH1 0x4 DUP1 CALLDATASIZE SUB PUSH1 0xC0 DUP2 LT ISZERO PUSH2 0x1DA JUMPI PUSH1 0x0 DUP1 REVERT JUMPDEST PUSH1 0x1 PUSH1 0x1 PUSH1 0xA0 SHL SUB DUP3 CALLDATALOAD AND SWAP2 SWAP1 DUP2 ADD SWAP1 PUSH1 0x40 DUP2 ADD PUSH1 0x20 DUP3 ADD CALLDATALOAD PUSH1 0x1 PUSH1 0x20 SHL DUP2 GT ISZERO PUSH2 0x204 JUMPI PUSH1 0x0 DUP1 REVERT JUMPDEST DUP3 ADD DUP4 PUSH1 0x20 DUP3 ADD GT ISZERO PUSH2 0x216 JUMPI PUSH1 0x0 DUP1 REVERT JUMPDEST DUP1 CALLDATALOAD SWAP1 PUSH1 0x20 ADD SWAP2 DUP5 PUSH1 0x1 DUP4 MUL DUP5 ADD GT PUSH1 0x1 PUSH1 0x20 SHL DUP4 GT OR ISZERO PUSH2 0x237 JUMPI PUSH1 0x0 DUP1 REVERT JUMPDEST SWAP2 SWAP1 DUP1 DUP1 PUSH1 0x1F ADD PUSH1 0x20 DUP1 SWAP2 DIV MUL PUSH1 0x20 ADD PUSH1 0x40 MLOAD SWAP1 DUP2 ADD PUSH1 0x40 MSTORE DUP1 SWAP4 SWAP3 SWAP2 SWAP1 DUP2 DUP2 MSTORE PUSH1 0x20 ADD DUP4 DUP4 DUP1 DUP3 DUP5 CALLDATACOPY PUSH1 0x0 SWAP3 ADD SWAP2 SWAP1 SWAP2 MSTORE POP SWAP3 SWAP6 POP POP DUP3 CALLDATALOAD SWAP4 POP POP POP PUSH1 0x20 DUP2 ADD CALLDATALOAD SWAP1 PUSH1 0x40 DUP2 ADD CALLDATALOAD SWAP1 PUSH1 0x60 ADD CALLDATALOAD PUSH2 0x964 JUMP JUMPDEST PUSH2 0x162 PUSH1 0x4 DUP1 CALLDATASIZE SUB PUSH1 0x60 DUP2 LT ISZERO PUSH2 0x29F JUMPI PUSH1 0x0 DUP1 REVERT JUMPDEST PUSH1 0x1 PUSH1 0x1 PUSH1 0xA0 SHL SUB DUP3 CALLDATALOAD AND SWAP2 SWAP1 DUP2 ADD SWAP1 PUSH1 0x40 DUP2 ADD PUSH1 0x20 DUP3 ADD CALLDATALOAD PUSH1 0x1 PUSH1 0x20 SHL DUP2 GT ISZERO PUSH2 0x2C9 JUMPI PUSH1 0x0 DUP1 REVERT JUMPDEST DUP3 ADD DUP4 PUSH1 0x20 DUP3 ADD GT ISZERO PUSH2 0x2DB JUMPI PUSH1 0x0 DUP1 REVERT JUMPDEST DUP1 CALLDATALOAD SWAP1 PUSH1 0x20 ADD SWAP2 DUP5 PUSH1 0x1 DUP4 MUL DUP5 ADD GT PUSH1 0x1 PUSH1 0x20 SHL DUP4 GT OR ISZERO PUSH2 0x2FC JUMPI PUSH1 0x0 DUP1 REVERT JUMPDEST SWAP2 SWAP1 DUP1 DUP1 PUSH1 0x1F ADD PUSH1 0x20 DUP1 SWAP2 DIV MUL PUSH1 0x20 ADD PUSH1 0x40 MLOAD SWAP1 DUP2 ADD PUSH1 0x40 MSTORE DUP1 SWAP4 SWAP3 SWAP2 SWAP1 DUP2 DUP2 MSTORE PUSH1 0x20 ADD DUP4 DUP4 DUP1 DUP3 DUP5 CALLDATACOPY PUSH1 0x0 SWAP3 ADD SWAP2 SWAP1 SWAP2 MSTORE POP SWAP3 SWAP6 POP POP SWAP2 CALLDATALOAD SWAP3 POP PUSH2 0x97A SWAP2 POP POP JUMP JUMPDEST PUSH2 0x347 PUSH2 0xB42 JUMP JUMPDEST PUSH1 0x40 DUP1 MLOAD PUSH1 0x1 PUSH1 0x1 PUSH1 0xA0 SHL SUB SWAP1 SWAP3 AND DUP3 MSTORE MLOAD SWAP1 DUP2 SWAP1 SUB PUSH1 0x20 ADD SWAP1 RETURN JUMPDEST PUSH2 0x407 PUSH1 0x4 DUP1 CALLDATASIZE SUB PUSH1 0x20 DUP2 LT ISZERO PUSH2 0x379 JUMPI PUSH1 0x0 DUP1 REVERT JUMPDEST DUP2 ADD SWAP1 PUSH1 0x20 DUP2 ADD DUP2 CALLDATALOAD PUSH1 0x1 PUSH1 0x20 SHL DUP2 GT ISZERO PUSH2 0x393 JUMPI PUSH1 0x0 DUP1 REVERT JUMPDEST DUP3 ADD DUP4 PUSH1 0x20 DUP3 ADD GT ISZERO PUSH2 0x3A5 JUMPI PUSH1 0x0 DUP1 REVERT JUMPDEST DUP1 CALLDATALOAD SWAP1 PUSH1 0x20 ADD SWAP2 DUP5 PUSH1 0x1 DUP4 MUL DUP5 ADD GT PUSH1 0x1 PUSH1 0x20 SHL DUP4 GT OR ISZERO PUSH2 0x3C6 JUMPI PUSH1 0x0 DUP1 REVERT JUMPDEST SWAP2 SWAP1 DUP1 DUP1 PUSH1 0x1F ADD PUSH1 0x20 DUP1 SWAP2 DIV MUL PUSH1 0x20 ADD PUSH1 0x40 MLOAD SWAP1 DUP2 ADD PUSH1 0x40 MSTORE DUP1 SWAP4 SWAP3 SWAP2 SWAP1 DUP2 DUP2 MSTORE PUSH1 0x20 ADD DUP4 DUP4 DUP1 DUP3 DUP5 CALLDATACOPY PUSH1 0x0 SWAP3 ADD SWAP2 SWAP1 SWAP2 MSTORE POP SWAP3 SWAP6 POP PUSH2 0xB51 SWAP5 POP POP POP POP POP JUMP JUMPDEST PUSH1 0x40 DUP1 MLOAD PUSH1 0x1 PUSH1 0x1 PUSH1 0xA0 SHL SUB SWAP1 SWAP10 AND DUP10 MSTORE PUSH1 0x20 DUP10 ADD SWAP8 SWAP1 SWAP8 MSTORE DUP8 DUP8 ADD SWAP6 SWAP1 SWAP6 MSTORE PUSH1 0x60 DUP8 ADD SWAP4 SWAP1 SWAP4 MSTORE PUSH1 0x80 DUP7 ADD SWAP2 SWAP1 SWAP2 MSTORE PUSH1 0xA0 DUP6 ADD MSTORE PUSH1 0xC0 DUP5 ADD MSTORE PUSH1 0xE0 DUP4 ADD MSTORE MLOAD SWAP1 DUP2 SWAP1 SUB PUSH2 0x100 ADD SWAP1 RETURN JUMPDEST PUSH2 0x162 PUSH1 0x4 DUP1 CALLDATASIZE SUB PUSH1 0x40 DUP2 LT ISZERO PUSH2 0x468 JUMPI PUSH1 0x0 DUP1 REVERT JUMPDEST POP PUSH1 0x1 PUSH1 0x1 PUSH1 0xA0 SHL SUB DUP2 CALLDATALOAD AND SWAP1 PUSH1 0x20 ADD CALLDATALOAD PUSH2 0xC91 JUMP JUMPDEST PUSH2 0x162 PUSH2 0xD7A JUMP JUMPDEST PUSH2 0x347 PUSH2 0xE1C JUMP JUMPDEST PUSH2 0x347 PUSH2 0xE2C JUMP JUMPDEST PUSH2 0x407 PUSH1 0x4 DUP1 CALLDATASIZE SUB PUSH1 0x20 DUP2 LT ISZERO PUSH2 0x4AC JUMPI PUSH1 0x0 DUP1 REVERT JUMPDEST DUP2 ADD SWAP1 PUSH1 0x20 DUP2 ADD DUP2 CALLDATALOAD PUSH1 0x1 PUSH1 0x20 SHL DUP2 GT ISZERO PUSH2 0x4C6 JUMPI PUSH1 0x0 DUP1 REVERT JUMPDEST DUP3 ADD DUP4 PUSH1 0x20 DUP3 ADD GT ISZERO PUSH2 0x4D8 JUMPI PUSH1 0x0 DUP1 REVERT JUMPDEST DUP1 CALLDATALOAD SWAP1 PUSH1 0x20 ADD SWAP2 DUP5 PUSH1 0x1 DUP4 MUL DUP5 ADD GT PUSH1 0x1 PUSH1 0x20 SHL DUP4 GT OR ISZERO PUSH2 0x4F9 JUMPI PUSH1 0x0 DUP1 REVERT JUMPDEST SWAP2 SWAP1 DUP1 DUP1 PUSH1 0x1F ADD PUSH1 0x20 DUP1 SWAP2 DIV MUL PUSH1 0x20 ADD PUSH1 0x40 MLOAD SWAP1 DUP2 ADD PUSH1 0x40 MSTORE DUP1 SWAP4 SWAP3 SWAP2 SWAP1 DUP2 DUP2 MSTORE PUSH1 0x20 ADD DUP4 DUP4 DUP1 DUP3 DUP5 CALLDATACOPY PUSH1 0x0 SWAP3 ADD SWAP2 SWAP1 SWAP2 MSTORE POP SWAP3 SWAP6 POP PUSH2 0xE3B SWAP5 POP POP POP POP POP JUMP JUMPDEST PUSH2 0x162 PUSH1 0x4 DUP1 CALLDATASIZE SUB PUSH1 0x40 DUP2 LT ISZERO PUSH2 0x550 JUMPI PUSH1 0x0 DUP1 REVERT JUMPDEST POP PUSH1 0x1 PUSH1 0x1 PUSH1 0xA0 SHL SUB DUP2 CALLDATALOAD AND SWAP1 PUSH1 0x20 ADD CALLDATALOAD PUSH2 0xE95 JUMP JUMPDEST PUSH2 0x16C PUSH1 0x4 DUP1 CALLDATASIZE SUB PUSH1 0x20 DUP2 LT ISZERO PUSH2 0x57C JUMPI PUSH1 0x0 DUP1 REVERT JUMPDEST POP CALLDATALOAD PUSH1 0x1 PUSH1 0x1 PUSH1 0xA0 SHL SUB AND PUSH2 0xF51 JUMP JUMPDEST PUSH2 0x16C PUSH1 0x4 DUP1 CALLDATASIZE SUB PUSH1 0x40 DUP2 LT ISZERO PUSH2 0x5A2 JUMPI PUSH1 0x0 DUP1 REVERT JUMPDEST POP DUP1 CALLDATALOAD SWAP1 PUSH1 0x20 ADD CALLDATALOAD PUSH2 0xF63 JUMP JUMPDEST PUSH2 0x16C PUSH1 0x4 DUP1 CALLDATASIZE SUB PUSH1 0x40 DUP2 LT ISZERO PUSH2 0x5C5 JUMPI PUSH1 0x0 DUP1 REVERT JUMPDEST POP DUP1 CALLDATALOAD SWAP1 PUSH1 0x20 ADD CALLDATALOAD PUSH2 0xF76 JUMP JUMPDEST PUSH2 0x162 PUSH1 0x4 DUP1 CALLDATASIZE SUB PUSH1 0x40 DUP2 LT ISZERO PUSH2 0x5E8 JUMPI PUSH1 0x0 DUP1 REVERT JUMPDEST DUP2 ADD SWAP1 PUSH1 0x20 DUP2 ADD DUP2 CALLDATALOAD PUSH1 0x1 PUSH1 0x20 SHL DUP2 GT ISZERO PUSH2 0x602 JUMPI PUSH1 0x0 DUP1 REVERT JUMPDEST DUP3 ADD DUP4 PUSH1 0x20 DUP3 ADD GT ISZERO PUSH2 0x614 JUMPI PUSH1 0x0 DUP1 REVERT JUMPDEST DUP1 CALLDATALOAD SWAP1 PUSH1 0x20 ADD SWAP2 DUP5 PUSH1 0x1 DUP4 MUL DUP5 ADD GT PUSH1 0x1 PUSH1 0x20 SHL DUP4 GT OR ISZERO PUSH2 0x635 JUMPI PUSH1 0x0 DUP1 REVERT JUMPDEST SWAP2 SWAP1 DUP1 DUP1 PUSH1 0x1F ADD PUSH1 0x20 DUP1 SWAP2 DIV MUL PUSH1 0x20 ADD PUSH1 0x40 MLOAD SWAP1 DUP2 ADD PUSH1 0x40 MSTORE DUP1 SWAP4 SWAP3 SWAP2 SWAP1 DUP2 DUP2 MSTORE PUSH1 0x20 ADD DUP4 DUP4 DUP1 DUP3 DUP5 CALLDATACOPY PUSH1 0x0 SWAP3 ADD SWAP2 SWAP1 SWAP2 MSTORE POP SWAP3 SWAP6 SWAP5 SWAP4 PUSH1 0x20 DUP2 ADD SWAP4 POP CALLDATALOAD SWAP2 POP POP PUSH1 0x1 PUSH1 0x20 SHL DUP2 GT ISZERO PUSH2 0x687 JUMPI PUSH1 0x0 DUP1 REVERT JUMPDEST DUP3 ADD DUP4 PUSH1 0x20 DUP3 ADD GT ISZERO PUSH2 0x699 JUMPI PUSH1 0x0 DUP1 REVERT JUMPDEST DUP1 CALLDATALOAD SWAP1 PUSH1 0x20 ADD SWAP2 DUP5 PUSH1 0x1 DUP4 MUL DUP5 ADD GT PUSH1 0x1 PUSH1 0x20 SHL DUP4 GT OR ISZERO PUSH2 0x6BA JUMPI PUSH1 0x0 DUP1 REVERT JUMPDEST SWAP2 SWAP1 DUP1 DUP1 PUSH1 0x1F ADD PUSH1 0x20 DUP1 SWAP2 DIV MUL PUSH1 0x20 ADD PUSH1 0x40 MLOAD SWAP1 DUP2 ADD PUSH1 0x40 MSTORE DUP1 SWAP4 SWAP3 SWAP2 SWAP1 DUP2 DUP2 MSTORE PUSH1 0x20 ADD DUP4 DUP4 DUP1 DUP3 DUP5 CALLDATACOPY PUSH1 0x0 SWAP3 ADD SWAP2 SWAP1 SWAP2 MSTORE POP SWAP3 SWAP6 POP PUSH2 0xF81 SWAP5 POP POP POP POP POP JUMP JUMPDEST PUSH2 0x162 PUSH1 0x4 DUP1 CALLDATASIZE SUB PUSH1 0xC0 DUP2 LT ISZERO PUSH2 0x711 JUMPI PUSH1 0x0 DUP1 REVERT JUMPDEST PUSH1 0x1 PUSH1 0x1 PUSH1 0xA0 SHL SUB DUP3 CALLDATALOAD AND SWAP2 SWAP1 DUP2 ADD SWAP1 PUSH1 0x40 DUP2 ADD PUSH1 0x20 DUP3 ADD CALLDATALOAD PUSH1 0x1 PUSH1 0x20 SHL DUP2 GT ISZERO PUSH2 0x73B JUMPI PUSH1 0x0 DUP1 REVERT JUMPDEST DUP3 ADD DUP4 PUSH1 0x20 DUP3 ADD GT ISZERO PUSH2 0x74D JUMPI PUSH1 0x0 DUP1 REVERT JUMPDEST DUP1 CALLDATALOAD SWAP1 PUSH1 0x20 ADD SWAP2 DUP5 PUSH1 0x1 DUP4 MUL DUP5 ADD GT PUSH1 0x1 PUSH1 0x20 SHL DUP4 GT OR ISZERO PUSH2 0x76E JUMPI PUSH1 0x0 DUP1 REVERT JUMPDEST SWAP2 SWAP1 DUP1 DUP1 PUSH1 0x1F ADD PUSH1 0x20 DUP1 SWAP2 DIV MUL PUSH1 0x20 ADD PUSH1 0x40 MLOAD SWAP1 DUP2 ADD PUSH1 0x40 MSTORE DUP1 SWAP4 SWAP3 SWAP2 SWAP1 DUP2 DUP2 MSTORE PUSH1 0x20 ADD DUP4 DUP4 DUP1 DUP3 DUP5 CALLDATACOPY PUSH1 0x0 SWAP3 ADD SWAP2 SWAP1 SWAP2 MSTORE POP SWAP3 SWAP6 POP POP DUP3 CALLDATALOAD SWAP4 POP POP POP PUSH1 0x20 DUP2 ADD CALLDATALOAD SWAP1 PUSH1 0x40 DUP2 ADD CALLDATALOAD SWAP1 PUSH1 0x60 ADD CALLDATALOAD PUSH2 0x10F0 JUMP JUMPDEST PUSH2 0x162 PUSH2 0x122C JUMP JUMPDEST PUSH2 0x162 PUSH1 0x4 DUP1 CALLDATASIZE SUB PUSH1 0x20 DUP2 LT ISZERO PUSH2 0x7DE JUMPI PUSH1 0x0 DUP1 REVERT JUMPDEST POP CALLDATALOAD PUSH1 0x1 PUSH1 0x1 PUSH1 0xA0 SHL SUB AND PUSH2 0x138C JUMP JUMPDEST PUSH2 0x7F6 PUSH2 0x1484 JUMP JUMPDEST PUSH1 0x0 SLOAD PUSH1 0x1 PUSH1 0x1 PUSH1 0xA0 SHL SUB SWAP1 DUP2 AND SWAP2 AND EQ PUSH2 0x846 JUMPI PUSH1 0x40 DUP1 MLOAD PUSH3 0x461BCD PUSH1 0xE5 SHL DUP2 MSTORE PUSH1 0x20 PUSH1 0x4 DUP3 ADD DUP2 SWAP1 MSTORE PUSH1 0x24 DUP3 ADD MSTORE PUSH1 0x0 DUP1 MLOAD PUSH1 0x20 PUSH2 0x153C DUP4 CODECOPY DUP2 MLOAD SWAP2 MSTORE PUSH1 0x44 DUP3 ADD MSTORE SWAP1 MLOAD SWAP1 DUP2 SWAP1 SUB PUSH1 0x64 ADD SWAP1 REVERT JUMPDEST PUSH1 0x3 DUP1 SLOAD PUSH1 0x1 PUSH1 0x1 PUSH1 0xA0 SHL SUB DUP1 DUP5 AND PUSH1 0x1 PUSH1 0x1 PUSH1 0xA0 SHL SUB NOT SWAP3 DUP4 AND OR SWAP3 DUP4 SWAP1 SSTORE PUSH1 0x1 DUP1 SLOAD SWAP1 SWAP3 AND SWAP3 DUP2 AND SWAP3 SWAP1 SWAP3 OR SWAP1 DUP2 SWAP1 SSTORE PUSH1 0x2 SLOAD PUSH1 0x40 DUP1 MLOAD PUSH4 0x51F462F5 PUSH1 0xE0 SHL DUP2 MSTORE SWAP2 DUP5 AND PUSH1 0x4 DUP4 ADD MSTORE MLOAD SWAP2 SWAP1 SWAP3 AND SWAP2 PUSH4 0x51F462F5 SWAP2 PUSH1 0x24 DUP1 DUP4 ADD SWAP3 PUSH1 0x0 SWAP3 SWAP2 SWAP1 DUP3 SWAP1 SUB ADD DUP2 DUP4 DUP8 DUP1 EXTCODESIZE ISZERO DUP1 ISZERO PUSH2 0x8BD JUMPI PUSH1 0x0 DUP1 REVERT JUMPDEST POP GAS CALL ISZERO DUP1 ISZERO PUSH2 0x8D1 JUMPI RETURNDATASIZE PUSH1 0x0 DUP1 RETURNDATACOPY RETURNDATASIZE PUSH1 0x0 REVERT JUMPDEST POP POP POP POP PUSH1 0x1 PUSH1 0x0 SWAP1 SLOAD SWAP1 PUSH2 0x100 EXP SWAP1 DIV PUSH1 0x1 PUSH1 0x1 PUSH1 0xA0 SHL SUB AND PUSH1 0x1 PUSH1 0x1 PUSH1 0xA0 SHL SUB AND PUSH4 0x7C9D5321 PUSH1 0x40 MLOAD DUP2 PUSH4 0xFFFFFFFF AND PUSH1 0xE0 SHL DUP2 MSTORE PUSH1 0x4 ADD PUSH1 0x0 PUSH1 0x40 MLOAD DUP1 DUP4 SUB DUP2 PUSH1 0x0 DUP8 DUP1 EXTCODESIZE ISZERO DUP1 ISZERO PUSH2 0x925 JUMPI PUSH1 0x0 DUP1 REVERT JUMPDEST POP GAS CALL ISZERO DUP1 ISZERO PUSH2 0x939 JUMPI RETURNDATASIZE PUSH1 0x0 DUP1 RETURNDATACOPY RETURNDATASIZE PUSH1 0x0 REVERT JUMPDEST POP POP POP POP POP JUMP JUMPDEST PUSH1 0x4 SLOAD DUP2 JUMP JUMPDEST PUSH1 0x0 DUP4 DUP3 PUSH1 0x4 MUL MUL DUP4 DUP2 PUSH2 0x956 JUMPI INVALID JUMPDEST DIV SWAP5 SWAP4 POP POP POP POP JUMP JUMPDEST PUSH1 0x4 SSTORE JUMP JUMPDEST PUSH2 0x972 DUP7 DUP7 DUP7 DUP7 DUP7 DUP7 PUSH2 0x10F0 JUMP JUMPDEST POP POP POP POP POP POP JUMP JUMPDEST PUSH2 0x982 PUSH2 0x1484 JUMP JUMPDEST PUSH1 0x0 SLOAD PUSH1 0x1 PUSH1 0x1 PUSH1 0xA0 SHL SUB SWAP1 DUP2 AND SWAP2 AND EQ PUSH2 0x9D2 JUMPI PUSH1 0x40 DUP1 MLOAD PUSH3 0x461BCD PUSH1 0xE5 SHL DUP2 MSTORE PUSH1 0x20 PUSH1 0x4 DUP3 ADD DUP2 SWAP1 MSTORE PUSH1 0x24 DUP3 ADD MSTORE PUSH1 0x0 DUP1 MLOAD PUSH1 0x20 PUSH2 0x153C DUP4 CODECOPY DUP2 MLOAD SWAP2 MSTORE PUSH1 0x44 DUP3 ADD MSTORE SWAP1 MLOAD SWAP1 DUP2 SWAP1 SUB PUSH1 0x64 ADD SWAP1 REVERT JUMPDEST PUSH1 0x0 PUSH2 0x9DC PUSH2 0x1488 JUMP JUMPDEST PUSH1 0x5 DUP5 PUSH1 0x40 MLOAD DUP1 DUP3 DUP1 MLOAD SWAP1 PUSH1 0x20 ADD SWAP1 DUP1 DUP4 DUP4 JUMPDEST PUSH1 0x20 DUP4 LT PUSH2 0xA0E JUMPI DUP1 MLOAD DUP3 MSTORE PUSH1 0x1F NOT SWAP1 SWAP3 ADD SWAP2 PUSH1 0x20 SWAP2 DUP3 ADD SWAP2 ADD PUSH2 0x9EF JUMP JUMPDEST MLOAD DUP2 MLOAD PUSH1 0x0 NOT PUSH1 0x20 SWAP5 DUP6 SUB PUSH2 0x100 SWAP1 DUP2 EXP SWAP2 SWAP1 SWAP2 ADD SWAP2 DUP3 AND SWAP2 NOT SWAP3 SWAP1 SWAP3 AND OR SWAP1 SWAP2 MSTORE SWAP4 SWAP1 SWAP2 ADD SWAP6 DUP7 MSTORE PUSH1 0x40 DUP1 MLOAD SWAP7 DUP8 SWAP1 SUB DUP3 ADD DUP8 KECCAK256 SWAP4 DUP8 ADD DUP2 MSTORE DUP4 SLOAD PUSH1 0x1 PUSH1 0x1 PUSH1 0xA0 SHL SUB AND DUP8 MSTORE PUSH1 0x1 DUP5 ADD SLOAD SWAP2 DUP8 ADD SWAP2 SWAP1 SWAP2 MSTORE PUSH1 0x2 DUP4 ADD SLOAD SWAP1 DUP7 ADD MSTORE POP PUSH1 0x3 DUP2 ADD SLOAD PUSH1 0x60 DUP6 ADD DUP2 SWAP1 MSTORE PUSH1 0x4 DUP3 ADD SLOAD PUSH1 0x80 DUP7 ADD MSTORE PUSH1 0x5 DUP3 ADD SLOAD PUSH1 0xA0 DUP7 ADD MSTORE PUSH1 0x6 DUP3 ADD SLOAD PUSH1 0xC0 DUP7 ADD MSTORE PUSH1 0x7 SWAP1 SWAP2 ADD SLOAD PUSH1 0xE0 DUP6 ADD MSTORE SWAP3 SWAP4 POP POP POP DUP4 LT PUSH2 0xAB7 JUMPI DUP1 PUSH1 0xA0 ADD MLOAD SWAP2 POP PUSH2 0xADA JUMP JUMPDEST DUP1 PUSH1 0x80 ADD MLOAD DUP4 GT PUSH2 0xAD0 JUMPI DUP3 DUP2 PUSH1 0xC0 ADD MLOAD MUL SWAP2 POP PUSH2 0xADA JUMP JUMPDEST DUP3 DUP2 PUSH1 0xE0 ADD MLOAD MUL SWAP2 POP JUMPDEST POP PUSH1 0x1 PUSH1 0x1 PUSH1 0xA0 SHL SUB SWAP1 SWAP4 AND PUSH1 0x0 DUP2 DUP2 MSTORE PUSH1 0x6 PUSH1 0x20 MSTORE PUSH1 0x40 DUP2 KECCAK256 DUP1 SLOAD SWAP1 SWAP6 ADD SWAP1 SWAP5 SSTORE PUSH1 0x7 DUP1 SLOAD PUSH1 0x1 DUP2 ADD DUP3 SSTORE SWAP5 MSTORE PUSH32 0xA66CC928B5EDB82AF9BD49922954155AB7B0942694BEA4CE44661D9A8736C688 SWAP1 SWAP4 ADD DUP1 SLOAD PUSH1 0x1 PUSH1 0x1 PUSH1 0xA0 SHL SUB NOT AND SWAP1 SWAP4 OR SWAP1 SWAP3 SSTORE POP POP JUMP JUMPDEST PUSH1 0x3 SLOAD PUSH1 0x1 PUSH1 0x1 PUSH1 0xA0 SHL SUB AND DUP2 JUMP JUMPDEST PUSH1 0x0 DUP1 PUSH1 0x0 DUP1 PUSH1 0x0 DUP1 PUSH1 0x0 DUP1 PUSH2 0xB65 PUSH2 0x1488 JUMP JUMPDEST PUSH1 0x5 DUP11 PUSH1 0x40 MLOAD DUP1 DUP3 DUP1 MLOAD SWAP1 PUSH1 0x20 ADD SWAP1 DUP1 DUP4 DUP4 JUMPDEST PUSH1 0x20 DUP4 LT PUSH2 0xB97 JUMPI DUP1 MLOAD DUP3 MSTORE PUSH1 0x1F NOT SWAP1 SWAP3 ADD SWAP2 PUSH1 0x20 SWAP2 DUP3 ADD SWAP2 ADD PUSH2 0xB78 JUMP JUMPDEST PUSH1 0x1 DUP4 PUSH1 0x20 SUB PUSH2 0x100 EXP SUB DUP1 NOT DUP3 MLOAD AND DUP2 DUP5 MLOAD AND DUP1 DUP3 OR DUP6 MSTORE POP POP POP POP POP POP SWAP1 POP ADD SWAP2 POP POP SWAP1 DUP2 MSTORE PUSH1 0x20 ADD PUSH1 0x40 MLOAD DUP1 SWAP2 SUB SWAP1 KECCAK256 PUSH1 0x40 MLOAD DUP1 PUSH2 0x100 ADD PUSH1 0x40 MSTORE SWAP1 DUP2 PUSH1 0x0 DUP3 ADD PUSH1 0x0 SWAP1 SLOAD SWAP1 PUSH2 0x100 EXP SWAP1 DIV PUSH1 0x1 PUSH1 0x1 PUSH1 0xA0 SHL SUB AND PUSH1 0x1 PUSH1 0x1 PUSH1 0xA0 SHL SUB AND PUSH1 0x1 PUSH1 0x1 PUSH1 0xA0 SHL SUB AND DUP2 MSTORE PUSH1 0x20 ADD PUSH1 0x1 DUP3 ADD SLOAD DUP2 MSTORE PUSH1 0x20 ADD PUSH1 0x2 DUP3 ADD SLOAD DUP2 MSTORE PUSH1 0x20 ADD PUSH1 0x3 DUP3 ADD SLOAD DUP2 MSTORE PUSH1 0x20 ADD PUSH1 0x4 DUP3 ADD SLOAD DUP2 MSTORE PUSH1 0x20 ADD PUSH1 0x5 DUP3 ADD SLOAD DUP2 MSTORE PUSH1 0x20 ADD PUSH1 0x6 DUP3 ADD SLOAD DUP2 MSTORE PUSH1 0x20 ADD PUSH1 0x7 DUP3 ADD SLOAD DUP2 MSTORE POP POP SWAP1 POP DUP1 PUSH1 0x0 ADD MLOAD DUP2 PUSH1 0x20 ADD MLOAD DUP3 PUSH1 0x40 ADD MLOAD DUP4 PUSH1 0x60 ADD MLOAD DUP5 PUSH1 0x80 ADD MLOAD DUP6 PUSH1 0xA0 ADD MLOAD DUP7 PUSH1 0xC0 ADD MLOAD DUP8 PUSH1 0xE0 ADD MLOAD SWAP9 POP SWAP9 POP SWAP9 POP SWAP9 POP SWAP9 POP SWAP9 POP SWAP9 POP SWAP9 POP POP SWAP2 SWAP4 SWAP6 SWAP8 POP SWAP2 SWAP4 SWAP6 SWAP8 JUMP JUMPDEST PUSH2 0xC99 PUSH2 0x1484 JUMP JUMPDEST PUSH1 0x0 SLOAD PUSH1 0x1 PUSH1 0x1 PUSH1 0xA0 SHL SUB SWAP1 DUP2 AND SWAP2 AND EQ PUSH2 0xCE9 JUMPI PUSH1 0x40 DUP1 MLOAD PUSH3 0x461BCD PUSH1 0xE5 SHL DUP2 MSTORE PUSH1 0x20 PUSH1 0x4 DUP3 ADD DUP2 SWAP1 MSTORE PUSH1 0x24 DUP3 ADD MSTORE PUSH1 0x0 DUP1 MLOAD PUSH1 0x20 PUSH2 0x153C DUP4 CODECOPY DUP2 MLOAD SWAP2 MSTORE PUSH1 0x44 DUP3 ADD MSTORE SWAP1 MLOAD SWAP1 DUP2 SWAP1 SUB PUSH1 0x64 ADD SWAP1 REVERT JUMPDEST PUSH1 0x1 SLOAD PUSH1 0x2 SLOAD PUSH1 0x40 DUP1 MLOAD PUSH4 0x23B872DD PUSH1 0xE0 SHL DUP2 MSTORE PUSH1 0x1 PUSH1 0x1 PUSH1 0xA0 SHL SUB SWAP3 DUP4 AND PUSH1 0x4 DUP3 ADD MSTORE DUP6 DUP4 AND PUSH1 0x24 DUP3 ADD MSTORE PUSH1 0x44 DUP2 ADD DUP6 SWAP1 MSTORE SWAP1 MLOAD SWAP2 SWAP1 SWAP3 AND SWAP2 PUSH4 0x23B872DD SWAP2 PUSH1 0x64 DUP1 DUP4 ADD SWAP3 PUSH1 0x20 SWAP3 SWAP2 SWAP1 DUP3 SWAP1 SUB ADD DUP2 PUSH1 0x0 DUP8 DUP1 EXTCODESIZE ISZERO DUP1 ISZERO PUSH2 0xD4A JUMPI PUSH1 0x0 DUP1 REVERT JUMPDEST POP GAS CALL ISZERO DUP1 ISZERO PUSH2 0xD5E JUMPI RETURNDATASIZE PUSH1 0x0 DUP1 RETURNDATACOPY RETURNDATASIZE PUSH1 0x0 REVERT JUMPDEST POP POP POP POP PUSH1 0x40 MLOAD RETURNDATASIZE PUSH1 0x20 DUP2 LT ISZERO PUSH2 0xD74 JUMPI PUSH1 0x0 DUP1 REVERT JUMPDEST POP POP POP POP JUMP JUMPDEST PUSH2 0xD82 PUSH2 0x1484 JUMP JUMPDEST PUSH1 0x0 SLOAD PUSH1 0x1 PUSH1 0x1 PUSH1 0xA0 SHL SUB SWAP1 DUP2 AND SWAP2 AND EQ PUSH2 0xDD2 JUMPI PUSH1 0x40 DUP1 MLOAD PUSH3 0x461BCD PUSH1 0xE5 SHL DUP2 MSTORE PUSH1 0x20 PUSH1 0x4 DUP3 ADD DUP2 SWAP1 MSTORE PUSH1 0x24 DUP3 ADD MSTORE PUSH1 0x0 DUP1 MLOAD PUSH1 0x20 PUSH2 0x153C DUP4 CODECOPY DUP2 MLOAD SWAP2 MSTORE PUSH1 0x44 DUP3 ADD MSTORE SWAP1 MLOAD SWAP1 DUP2 SWAP1 SUB PUSH1 0x64 ADD SWAP1 REVERT JUMPDEST PUSH1 0x0 DUP1 SLOAD PUSH1 0x40 MLOAD PUSH1 0x1 PUSH1 0x1 PUSH1 0xA0 SHL SUB SWAP1 SWAP2 AND SWAP1 PUSH32 0x8BE0079C531659141344CD1FD0A4F28419497F9722A3DAAFE3B4186F6B6457E0 SWAP1 DUP4 SWAP1 LOG3 PUSH1 0x0 DUP1 SLOAD PUSH1 0x1 PUSH1 0x1 PUSH1 0xA0 SHL SUB NOT AND SWAP1 SSTORE JUMP JUMPDEST PUSH1 0x0 SLOAD PUSH1 0x1 PUSH1 0x1 PUSH1 0xA0 SHL SUB AND JUMPDEST SWAP1 JUMP JUMPDEST PUSH1 0x2 SLOAD PUSH1 0x1 PUSH1 0x1 PUSH1 0xA0 SHL SUB AND DUP2 JUMP JUMPDEST DUP1 MLOAD PUSH1 0x20 DUP2 DUP4 ADD DUP2 ADD DUP1 MLOAD PUSH1 0x5 DUP1 DUP4 MSTORE SWAP4 DUP4 ADD SWAP3 SWAP1 SWAP5 ADD SWAP2 SWAP1 SWAP2 KECCAK256 SWAP3 SWAP1 MSTORE DUP2 SLOAD PUSH1 0x1 DUP4 ADD SLOAD PUSH1 0x2 DUP5 ADD SLOAD PUSH1 0x3 DUP6 ADD SLOAD PUSH1 0x4 DUP7 ADD SLOAD SWAP5 DUP7 ADD SLOAD PUSH1 0x6 DUP8 ADD SLOAD PUSH1 0x7 SWAP1 SWAP8 ADD SLOAD PUSH1 0x1 PUSH1 0x1 PUSH1 0xA0 SHL SUB SWAP1 SWAP6 AND SWAP7 SWAP4 SWAP6 SWAP3 SWAP5 SWAP2 SWAP4 SWAP1 SWAP2 DUP9 JUMP JUMPDEST PUSH2 0xE9D PUSH2 0x1484 JUMP JUMPDEST PUSH1 0x0 SLOAD PUSH1 0x1 PUSH1 0x1 PUSH1 0xA0 SHL SUB SWAP1 DUP2 AND SWAP2 AND EQ PUSH2 0xEED JUMPI PUSH1 0x40 DUP1 MLOAD PUSH3 0x461BCD PUSH1 0xE5 SHL DUP2 MSTORE PUSH1 0x20 PUSH1 0x4 DUP3 ADD DUP2 SWAP1 MSTORE PUSH1 0x24 DUP3 ADD MSTORE PUSH1 0x0 DUP1 MLOAD PUSH1 0x20 PUSH2 0x153C DUP4 CODECOPY DUP2 MLOAD SWAP2 MSTORE PUSH1 0x44 DUP3 ADD MSTORE SWAP1 MLOAD SWAP1 DUP2 SWAP1 SUB PUSH1 0x64 ADD SWAP1 REVERT JUMPDEST PUSH1 0x1 PUSH1 0x1 PUSH1 0xA0 SHL SUB SWAP1 SWAP2 AND PUSH1 0x0 DUP2 DUP2 MSTORE PUSH1 0x6 PUSH1 0x20 MSTORE PUSH1 0x40 DUP2 KECCAK256 DUP1 SLOAD SWAP1 SWAP4 ADD SWAP1 SWAP3 SSTORE PUSH1 0x7 DUP1 SLOAD PUSH1 0x1 DUP2 ADD DUP3 SSTORE SWAP3 MSTORE PUSH32 0xA66CC928B5EDB82AF9BD49922954155AB7B0942694BEA4CE44661D9A8736C688 SWAP1 SWAP2 ADD DUP1 SLOAD PUSH1 0x1 PUSH1 0x1 PUSH1 0xA0 SHL SUB NOT AND SWAP1 SWAP2 OR SWAP1 SSTORE JUMP JUMPDEST PUSH1 0x6 PUSH1 0x20 MSTORE PUSH1 0x0 SWAP1 DUP2 MSTORE PUSH1 0x40 SWAP1 KECCAK256 SLOAD DUP2 JUMP JUMPDEST PUSH1 0x0 DUP2 DUP4 DUP2 PUSH2 0xF6E JUMPI INVALID JUMPDEST DIV SWAP4 SWAP3 POP POP POP JUMP JUMPDEST PUSH1 0x0 DUP3 DUP3 DUP2 PUSH2 0xF6E JUMPI INVALID JUMPDEST PUSH1 0x5 DUP3 PUSH1 0x40 MLOAD DUP1 DUP3 DUP1 MLOAD SWAP1 PUSH1 0x20 ADD SWAP1 DUP1 DUP4 DUP4 JUMPDEST PUSH1 0x20 DUP4 LT PUSH2 0xFB3 JUMPI DUP1 MLOAD DUP3 MSTORE PUSH1 0x1F NOT SWAP1 SWAP3 ADD SWAP2 PUSH1 0x20 SWAP2 DUP3 ADD SWAP2 ADD PUSH2 0xF94 JUMP JUMPDEST MLOAD DUP2 MLOAD PUSH1 0x20 SWAP4 DUP5 SUB PUSH2 0x100 EXP PUSH1 0x0 NOT ADD DUP1 NOT SWAP1 SWAP3 AND SWAP2 AND OR SWAP1 MSTORE SWAP3 ADD SWAP5 DUP6 MSTORE POP PUSH1 0x40 MLOAD SWAP4 DUP5 SWAP1 SUB ADD SWAP1 SWAP3 KECCAK256 PUSH1 0x1 ADD SLOAD ISZERO SWAP2 POP PUSH2 0x10EC SWAP1 POP JUMPI PUSH32 0xB46EE3ACDFAB018C5750CF60E5B6D00FA6E2B7B70598811347108C6BD135FA5B DUP3 DUP3 PUSH1 0x40 MLOAD DUP1 DUP1 PUSH1 0x20 ADD DUP1 PUSH1 0x20 ADD DUP4 DUP2 SUB DUP4 MSTORE DUP6 DUP2 DUP2 MLOAD DUP2 MSTORE PUSH1 0x20 ADD SWAP2 POP DUP1 MLOAD SWAP1 PUSH1 0x20 ADD SWAP1 DUP1 DUP4 DUP4 PUSH1 0x0 JUMPDEST DUP4 DUP2 LT ISZERO PUSH2 0x104F JUMPI DUP2 DUP2 ADD MLOAD DUP4 DUP3 ADD MSTORE PUSH1 0x20 ADD PUSH2 0x1037 JUMP JUMPDEST POP POP POP POP SWAP1 POP SWAP1 DUP2 ADD SWAP1 PUSH1 0x1F AND DUP1 ISZERO PUSH2 0x107C JUMPI DUP1 DUP3 SUB DUP1 MLOAD PUSH1 0x1 DUP4 PUSH1 0x20 SUB PUSH2 0x100 EXP SUB NOT AND DUP2 MSTORE PUSH1 0x20 ADD SWAP2 POP JUMPDEST POP DUP4 DUP2 SUB DUP3 MSTORE DUP5 MLOAD DUP2 MSTORE DUP5 MLOAD PUSH1 0x20 SWAP2 DUP3 ADD SWAP2 DUP7 ADD SWAP1 DUP1 DUP4 DUP4 PUSH1 0x0 JUMPDEST DUP4 DUP2 LT ISZERO PUSH2 0x10AF JUMPI DUP2 DUP2 ADD MLOAD DUP4 DUP3 ADD MSTORE PUSH1 0x20 ADD PUSH2 0x1097 JUMP JUMPDEST POP POP POP POP SWAP1 POP SWAP1 DUP2 ADD SWAP1 PUSH1 0x1F AND DUP1 ISZERO PUSH2 0x10DC JUMPI DUP1 DUP3 SUB DUP1 MLOAD PUSH1 0x1 DUP4 PUSH1 0x20 SUB PUSH2 0x100 EXP SUB NOT AND DUP2 MSTORE PUSH1 0x20 ADD SWAP2 POP JUMPDEST POP SWAP5 POP POP POP POP POP PUSH1 0x40 MLOAD DUP1 SWAP2 SUB SWAP1 LOG1 JUMPDEST POP POP JUMP JUMPDEST PUSH1 0x0 PUSH2 0x10FC DUP6 DUP6 PUSH2 0xF63 JUMP JUMPDEST SWAP1 POP PUSH1 0x0 PUSH2 0x110B DUP5 DUP8 DUP8 PUSH2 0x946 JUMP JUMPDEST SWAP1 POP PUSH1 0x0 PUSH2 0x1119 DUP6 DUP5 PUSH2 0xF76 JUMP JUMPDEST SWAP1 POP PUSH1 0x40 MLOAD DUP1 PUSH2 0x100 ADD PUSH1 0x40 MSTORE DUP1 DUP11 PUSH1 0x1 PUSH1 0x1 PUSH1 0xA0 SHL SUB AND DUP2 MSTORE PUSH1 0x20 ADD DUP9 DUP2 MSTORE PUSH1 0x20 ADD DUP8 DUP2 MSTORE PUSH1 0x20 ADD DUP7 DUP2 MSTORE PUSH1 0x20 ADD DUP6 DUP2 MSTORE PUSH1 0x20 ADD DUP5 DUP2 MSTORE PUSH1 0x20 ADD DUP4 DUP2 MSTORE PUSH1 0x20 ADD DUP3 DUP2 MSTORE POP PUSH1 0x5 DUP10 PUSH1 0x40 MLOAD DUP1 DUP3 DUP1 MLOAD SWAP1 PUSH1 0x20 ADD SWAP1 DUP1 DUP4 DUP4 JUMPDEST PUSH1 0x20 DUP4 LT PUSH2 0x1190 JUMPI DUP1 MLOAD DUP3 MSTORE PUSH1 0x1F NOT SWAP1 SWAP3 ADD SWAP2 PUSH1 0x20 SWAP2 DUP3 ADD SWAP2 ADD PUSH2 0x1171 JUMP JUMPDEST MLOAD DUP2 MLOAD PUSH1 0x20 SWAP4 DUP5 SUB PUSH2 0x100 EXP PUSH1 0x0 NOT ADD DUP1 NOT SWAP1 SWAP3 AND SWAP2 AND OR SWAP1 MSTORE SWAP3 ADD SWAP5 DUP6 MSTORE POP PUSH1 0x40 DUP1 MLOAD SWAP5 DUP6 SWAP1 SUB DUP3 ADD SWAP1 SWAP5 KECCAK256 DUP6 MLOAD DUP2 SLOAD PUSH1 0x1 PUSH1 0x1 PUSH1 0xA0 SHL SUB NOT AND PUSH1 0x1 PUSH1 0x1 PUSH1 0xA0 SHL SUB SWAP1 SWAP2 AND OR DUP2 SSTORE SWAP1 DUP6 ADD MLOAD PUSH1 0x1 DUP3 ADD SSTORE SWAP3 DUP5 ADD MLOAD PUSH1 0x2 DUP5 ADD SSTORE POP POP PUSH1 0x60 DUP3 ADD MLOAD PUSH1 0x3 DUP3 ADD SSTORE PUSH1 0x80 DUP3 ADD MLOAD PUSH1 0x4 DUP3 ADD SSTORE PUSH1 0xA0 DUP3 ADD MLOAD PUSH1 0x5 DUP3 ADD SSTORE PUSH1 0xC0 DUP3 ADD MLOAD PUSH1 0x6 DUP3 ADD SSTORE PUSH1 0xE0 SWAP1 SWAP2 ADD MLOAD PUSH1 0x7 SWAP1 SWAP2 ADD SSTORE POP POP POP POP POP POP POP POP POP JUMP JUMPDEST PUSH2 0x1234 PUSH2 0x1484 JUMP JUMPDEST PUSH1 0x0 SLOAD PUSH1 0x1 PUSH1 0x1 PUSH1 0xA0 SHL SUB SWAP1 DUP2 AND SWAP2 AND EQ PUSH2 0x1284 JUMPI PUSH1 0x40 DUP1 MLOAD PUSH3 0x461BCD PUSH1 0xE5 SHL DUP2 MSTORE PUSH1 0x20 PUSH1 0x4 DUP3 ADD DUP2 SWAP1 MSTORE PUSH1 0x24 DUP3 ADD MSTORE PUSH1 0x0 DUP1 MLOAD PUSH1 0x20 PUSH2 0x153C DUP4 CODECOPY DUP2 MLOAD SWAP2 MSTORE PUSH1 0x44 DUP3 ADD MSTORE SWAP1 MLOAD SWAP1 DUP2 SWAP1 SUB PUSH1 0x64 ADD SWAP1 REVERT JUMPDEST PUSH1 0x0 JUMPDEST PUSH1 0x7 SLOAD DUP2 LT ISZERO PUSH2 0x137D JUMPI PUSH1 0x0 PUSH1 0x7 DUP3 DUP2 SLOAD DUP2 LT PUSH2 0x12A0 JUMPI INVALID JUMPDEST PUSH1 0x0 SWAP2 DUP3 MSTORE PUSH1 0x20 DUP1 DUP4 KECCAK256 SWAP1 SWAP2 ADD SLOAD PUSH1 0x1 PUSH1 0x1 PUSH1 0xA0 SHL SUB AND DUP1 DUP4 MSTORE PUSH1 0x6 SWAP1 SWAP2 MSTORE PUSH1 0x40 SWAP1 SWAP2 KECCAK256 SLOAD SWAP1 SWAP2 POP DUP1 ISZERO PUSH2 0x135C JUMPI PUSH1 0x1 SLOAD PUSH1 0x2 SLOAD PUSH1 0x40 DUP1 MLOAD PUSH4 0x23B872DD PUSH1 0xE0 SHL DUP2 MSTORE PUSH1 0x1 PUSH1 0x1 PUSH1 0xA0 SHL SUB SWAP3 DUP4 AND PUSH1 0x4 DUP3 ADD MSTORE DUP6 DUP4 AND PUSH1 0x24 DUP3 ADD MSTORE PUSH1 0x44 DUP2 ADD DUP6 SWAP1 MSTORE SWAP1 MLOAD SWAP2 SWAP1 SWAP3 AND SWAP2 PUSH4 0x23B872DD SWAP2 PUSH1 0x64 DUP1 DUP4 ADD SWAP3 PUSH1 0x20 SWAP3 SWAP2 SWAP1 DUP3 SWAP1 SUB ADD DUP2 PUSH1 0x0 DUP8 DUP1 EXTCODESIZE ISZERO DUP1 ISZERO PUSH2 0x132F JUMPI PUSH1 0x0 DUP1 REVERT JUMPDEST POP GAS CALL ISZERO DUP1 ISZERO PUSH2 0x1343 JUMPI RETURNDATASIZE PUSH1 0x0 DUP1 RETURNDATACOPY RETURNDATASIZE PUSH1 0x0 REVERT JUMPDEST POP POP POP POP PUSH1 0x40 MLOAD RETURNDATASIZE PUSH1 0x20 DUP2 LT ISZERO PUSH2 0x1359 JUMPI PUSH1 0x0 DUP1 REVERT JUMPDEST POP POP JUMPDEST POP PUSH1 0x1 PUSH1 0x1 PUSH1 0xA0 SHL SUB AND PUSH1 0x0 SWAP1 DUP2 MSTORE PUSH1 0x6 PUSH1 0x20 MSTORE PUSH1 0x40 DUP2 KECCAK256 SSTORE PUSH1 0x1 ADD PUSH2 0x1287 JUMP JUMPDEST POP PUSH2 0x138A PUSH1 0x7 PUSH1 0x0 PUSH2 0x14D6 JUMP JUMPDEST JUMP JUMPDEST PUSH2 0x1394 PUSH2 0x1484 JUMP JUMPDEST PUSH1 0x0 SLOAD PUSH1 0x1 PUSH1 0x1 PUSH1 0xA0 SHL SUB SWAP1 DUP2 AND SWAP2 AND EQ PUSH2 0x13E4 JUMPI PUSH1 0x40 DUP1 MLOAD PUSH3 0x461BCD PUSH1 0xE5 SHL DUP2 MSTORE PUSH1 0x20 PUSH1 0x4 DUP3 ADD DUP2 SWAP1 MSTORE PUSH1 0x24 DUP3 ADD MSTORE PUSH1 0x0 DUP1 MLOAD PUSH1 0x20 PUSH2 0x153C DUP4 CODECOPY DUP2 MLOAD SWAP2 MSTORE PUSH1 0x44 DUP3 ADD MSTORE SWAP1 MLOAD SWAP1 DUP2 SWAP1 SUB PUSH1 0x64 ADD SWAP1 REVERT JUMPDEST PUSH1 0x1 PUSH1 0x1 PUSH1 0xA0 SHL SUB DUP2 AND PUSH2 0x1429 JUMPI PUSH1 0x40 MLOAD PUSH3 0x461BCD PUSH1 0xE5 SHL DUP2 MSTORE PUSH1 0x4 ADD DUP1 DUP1 PUSH1 0x20 ADD DUP3 DUP2 SUB DUP3 MSTORE PUSH1 0x26 DUP2 MSTORE PUSH1 0x20 ADD DUP1 PUSH2 0x1516 PUSH1 0x26 SWAP2 CODECOPY PUSH1 0x40 ADD SWAP2 POP POP PUSH1 0x40 MLOAD DUP1 SWAP2 SUB SWAP1 REVERT JUMPDEST PUSH1 0x0 DUP1 SLOAD PUSH1 0x40 MLOAD PUSH1 0x1 PUSH1 0x1 PUSH1 0xA0 SHL SUB DUP1 DUP6 AND SWAP4 SWAP3 AND SWAP2 PUSH32 0x8BE0079C531659141344CD1FD0A4F28419497F9722A3DAAFE3B4186F6B6457E0 SWAP2 LOG3 PUSH1 0x0 DUP1 SLOAD PUSH1 0x1 PUSH1 0x1 PUSH1 0xA0 SHL SUB NOT AND PUSH1 0x1 PUSH1 0x1 PUSH1 0xA0 SHL SUB SWAP3 SWAP1 SWAP3 AND SWAP2 SWAP1 SWAP2 OR SWAP1 SSTORE JUMP JUMPDEST CALLER SWAP1 JUMP JUMPDEST PUSH1 0x40 MLOAD DUP1 PUSH2 0x100 ADD PUSH1 0x40 MSTORE DUP1 PUSH1 0x0 PUSH1 0x1 PUSH1 0x1 PUSH1 0xA0 SHL SUB AND DUP2 MSTORE PUSH1 0x20 ADD PUSH1 0x0 DUP2 MSTORE PUSH1 0x20 ADD PUSH1 0x0 DUP2 MSTORE PUSH1 0x20 ADD PUSH1 0x0 DUP2 MSTORE PUSH1 0x20 ADD PUSH1 0x0 DUP2 MSTORE PUSH1 0x20 ADD PUSH1 0x0 DUP2 MSTORE PUSH1 0x20 ADD PUSH1 0x0 DUP2 MSTORE PUSH1 0x20 ADD PUSH1 0x0 DUP2 MSTORE POP SWAP1 JUMP JUMPDEST POP DUP1 SLOAD PUSH1 0x0 DUP3 SSTORE SWAP1 PUSH1 0x0 MSTORE PUSH1 0x20 PUSH1 0x0 KECCAK256 SWAP1 DUP2 ADD SWAP1 PUSH2 0x14F4 SWAP2 SWAP1 PUSH2 0x14F7 JUMP JUMPDEST POP JUMP JUMPDEST PUSH2 0xE29 SWAP2 SWAP1 JUMPDEST DUP1 DUP3 GT ISZERO PUSH2 0x1511 JUMPI PUSH1 0x0 DUP2 SSTORE PUSH1 0x1 ADD PUSH2 0x14FD JUMP JUMPDEST POP SWAP1 JUMP INVALID 0x4F PUSH24 0x6E61626C653A206E6577206F776E65722069732074686520 PUSH27 0x65726F20616464726573734F776E61626C653A2063616C6C657220 PUSH10 0x73206E6F742074686520 PUSH16 0x776E6572A26469706673582212202903 0xF6 DELEGATECALL OR 0x48 BALANCE CODECOPY 0x1F PUSH23 0xCEB73DB7B19F473862E3BC48604DF753FCD4757890B764 PUSH20 0x6F6C634300060600330000000000000000000000 ",
  "sha1": "23f0e647c28f5c9a803b4cc69437ce21f9194710",
  "source": "pragma solidity >=0.4.0 <0.9.0;\n\nimport \"./CrowdCoin.sol\";\nimport \"OpenZeppelin/openzeppelin-contracts@3.0.0/contracts/access/Ownable.sol\";\n// import \"https://github.com/OpenZeppelin/openzeppelin-contracts/blob/v3.4.0/contracts/access/Ownable.sol\";\n\ncontract Reward is Ownable{\n    using SafeMath for uint;\n    using SafeMath for uint256;\n\n    struct SurveyReward {\n        address survey_owner;\n        uint256 budget;\n        uint256 target_number;\n        uint top_perform_threshold;\n        uint low_perform_threshold;\n        uint256 max_reward;\n        uint256 min_reward_multiplier;\n        uint256 med_reward_multiplier;\n    }\n\n    CrowdCoin crowdcoin;\n    address public contract_address;\n    address public crowdcoin_address;\n    uint256 public create_survey_cost;\n    \n    mapping(string => SurveyReward) public survey_rewards; //public survey key -> survey reward\n    mapping(address => uint256) public dp_staking_rewards;\n    address[] dp_stack;\n\n    event Log_checksum(string survey_key, string checksum);\n\n    constructor () public Ownable(){\n        // SAMPLE RECORD\n        add_survey_reward(\n            address(this),\n            \"THIS_IS_SURVEY_PUBLIC_KEY\",\n            10000,\n            1000,\n            75,\n            25\n        );\n        \n        contract_address = address(this);\n    }\n\n    function set_coin(address _address) public onlyOwner{\n        // SET COIN CONTRACT\n        crowdcoin_address = _address;\n        crowdcoin = CrowdCoin(crowdcoin_address);\n        crowdcoin.set_reward_contract_address(contract_address);\n        crowdcoin.init_mint();  //this contract account will have 10000000000 coins at the beginning\n    }\n\n    function get_max_reward(uint256 budget, uint256 target_number) public pure returns(uint256){\n        return budget / target_number;\n    }\n\n    function get_min_reward(uint top_perform, uint256 budget, uint256 target_number) public pure returns(uint256){\n        return budget / (4 * target_number * top_perform) ;\n    }\n\n    function get_med_reward(uint top_perform, uint256 max) public pure returns(uint256){\n        return max / top_perform;\n    }\n\n    function add_survey_reward(\n        // SET CONTRACT REWARD DETAILS WHEN SURVEY IS CREATED\n        address _survey_owner,\n        string memory survey_public_key,\n        uint256 _budget,\n        uint256 _target_number,\n        uint _top_perform_threshold,\n        uint _low_perform_threshold\n        )public{\n            uint256 _max_reward = get_max_reward(_budget, _target_number);\n            uint256 _min_reward_multiplier = get_min_reward(_top_perform_threshold, _budget, _target_number);\n            uint256 _med_reward_multiplier = get_med_reward(_top_perform_threshold, _max_reward);\n\n            survey_rewards[survey_public_key] = SurveyReward({\n                survey_owner : _survey_owner,\n                budget : _budget,\n                target_number : _target_number,\n                top_perform_threshold : _top_perform_threshold,\n                low_perform_threshold : _low_perform_threshold,\n                max_reward : _max_reward,\n                min_reward_multiplier : _min_reward_multiplier,\n                med_reward_multiplier : _med_reward_multiplier\n            });\n        }\n\n    function calculate_reward(address dp_address, string memory survey_key, uint performance)public onlyOwner{\n        // CALCULATE REWARD OF DATA PROVIDERS BASED ON THEIR PERFORMANCE\n        uint256 reward;\n        SurveyReward memory survey = survey_rewards[survey_key];\n        if (performance >= survey.top_perform_threshold){\n            reward = survey.max_reward;\n        }else if (performance <= survey.low_perform_threshold){\n            reward = survey.min_reward_multiplier * performance;\n        }else{\n            reward = survey.med_reward_multiplier * performance;\n        }\n        dp_staking_rewards[dp_address] = dp_staking_rewards[dp_address] + reward;\n        dp_stack.push(dp_address);\n    }\n\n    function add_reward(address dp_address, uint256 reward) public onlyOwner{\n        // DIRECTLY RECORD DATA PROVIDERS' REWARD\n        dp_staking_rewards[dp_address] = dp_staking_rewards[dp_address] + reward;\n        dp_stack.push(dp_address);\n    }\n\n\n    function distribute_all_rewards() public onlyOwner{\n        //DISTRIBUTE ALL RECORDED REWARDS AT ONCE (not by survey, probably will call this function every 15 minutes and will transfer all rewards accumulated within the 15 mins)\n        for(uint i=0; i<dp_stack.length; i++){\n            address dp = dp_stack[i];\n            uint256 received_rewards = dp_staking_rewards[dp];\n            if (received_rewards > 0){\n                crowdcoin.transferFrom(contract_address, dp, received_rewards);\n            }\n            dp_staking_rewards[dp] = 0; //reset dp_staking_rewards balance\n        }\n        delete dp_stack; //reset dp_stack records\n    }\n\n    function set_create_survey_cost(uint256 cost)public {\n        // REWARDS POINT TO BE DEDUCTED WHEN CREATE SURVEY\n        create_survey_cost = cost;\n    }\n\n    function create_survey(\n        address survey_owner_address,\n        string memory survey_public_key,\n        uint256 _budget,\n        uint256 _target_number,\n        uint _top_perform_threshold,\n        uint _low_perform_threshold) public {\n            // uint256 sum;\n            // sum = create_survey_cost + _budget;\n            // // DEDUCT CREATE SURVEY COST + BUDGET FOT THE SURVEY\n            // crowdcoin.transferFrom(survey_owner_address, contract_address, sum);\n            add_survey_reward(survey_owner_address, survey_public_key, _budget, _target_number, _top_perform_threshold, _low_perform_threshold);\n    }\n\n    function purchase_coin(address purchase, uint256 amount) public onlyOwner{\n        // ADDRESS THAT PURCHASED THE REWARD POINTS\n        crowdcoin.transferFrom(contract_address, purchase, amount);\n    }\n\n    function get_survey_reward_by_key(\n        // SET CONTRACT REWARD DETAILS WHEN SURVEY IS CREATED\n        string memory survey_public_key\n        )public view returns(\n            address,\n            uint256,\n            uint256,\n            uint,\n            uint,\n            uint256,\n            uint256,\n            uint256\n        ){\n            SurveyReward memory s = survey_rewards[survey_public_key];\n            return(\n                s.survey_owner,\n                s.budget,\n                s.target_number,\n                s.top_perform_threshold,\n                s.low_perform_threshold,\n                s.max_reward,\n                s.min_reward_multiplier,\n                s.med_reward_multiplier\n            );\n        }\n    \n    function log_checksum(string memory survey_key, string memory checksum) public{\n        if (survey_rewards[survey_key].budget != 0){\n            emit Log_checksum(survey_key, checksum);\n        }\n    }\n\n}",
  "sourcePath": "contracts/Reward.sol",
  "type": "contract"
}